:100000004BC065C064C063C062C061C060C05FC0F7
:100010005EC05DC05CC05CC087C059C058C057C0DE
:1000200056C055C054C00A0D72202D205269676811
:10003000740A0D6C202D204C6566740A0D73202DFA
:100040002073746F700A0D63202D2043616C696208
:10005000726174650A0D74202D2054617267657495
:100060000A0D69202D20496E666F0A0D00546172D9
:100070006765740A0D0043414C4942524154450A98
:100080000D0053544F500A0D004C4546540A0D00C4
:1000900052494748540A0D0011241FBECFE5D4E051
:1000A000DEBFCDBF10E0A0E6B0E0E8EBF6E002C0B6
:1000B00005900D92A839B107D9F711E0A8E9B0E091
:1000C00001C01D92A635B107E1F7C9D1F3C298CF9F
:1000D0001F920F920FB60F9211242F938F939F931D
:1000E000EF93FF938BB19CB18871E091A400EF5F17
:1000F000EF712091A300E21739F0E093A400F0E043
:10010000E955FF4F908301C082E09091A200982BA7
:100110009093A200FF91EF919F918F912F910F905B
:100120000FBE0F901F9018951F920F920FB60F924F
:1001300011248F939F93EF93FF939091A60080914A
:10014000A500981761F0E091A500EF5FEF71E093D3
:10015000A500F0E0E953FF4F80818CB901C05598AC
:10016000FF91EF919F918F910F900FBE0F901F9075
:1001700018959091A4008091A300981781F0E091C8
:10018000A300EF5FEF71E093A300F0E0E955FF4FAC
:1001900080819091A2001092A20090E0089580E0EA
:1001A00091E008959091A6009F5F9F712091A50016
:1001B0009217E1F3E92FF0E0E953FF4F808390932A
:1001C000A600559A0895CF93DF93EC018991882377
:1001D00011F0E8DFFBCFDF91CF9108951092A600D8
:1001E0001092A5001092A4001092A30097FF03C0E4
:1001F00022E02BB99F7790BD89B988E98AB986E852
:1002000080BD81E790E0DFCFCF93DF93FC01849145
:10021000EF012196882319F0C5DFFE01F8CFDF91A9
:10022000CF910895E0919900F0E0EE59FF4F908151
:1002300095BBE3EFF1E03197F1F700C0000090913A
:10024000990040919E0050919F006091A000709194
:10025000A100823769F4933018F01092990003C01E
:100260009F5F909399004F5F5F4F6F4F7F4F0DC01F
:10027000911104C083E08093990003C09150909342
:100280009900415051096109710940939E005093B2
:100290009F006093A0007093A1000895809160007A
:1002A000833709F47BC080919A0090919B00A091C4
:1002B0009C00B0919D00181619061A061B0644F002
:1002C00010929A0010929B0010929C0010929D0038
:1002D00080919A0090919B00A0919C00B0919D000C
:1002E000803D9740A105B10560F080ED97E0A0E06A
:1002F000B0E080939A0090939B00A0939C00B093F1
:100300009D0040919E0050919F006091A0007091CF
:10031000A10080919A0090919B00A0919C00B091C7
:100320009D00481759076A077B072CF482E77ADF9C
:1003300082E78093600040919E0050919F00609101
:10034000A0007091A10080919A0090919B00A091D3
:100350009C00B0919D0084179507A607B7072CF461
:100360008CE660DF82E78093600040919E005091B0
:100370009F006091A0007091A10080919A009091DF
:100380009B00A0919C00B0919D00481759076A07F7
:100390007B0721F483E78093600015BA08958F925C
:1003A0009F92AF92BF92CF92DF92EF92FF926091B5
:1003B0009E0070919F008091A0009091A10025E087
:1003C000822E912CA12CB12CA5019401F3D06901AE
:1003D0007A0120931F013093200140932101509313
:1003E000220160919A0070919B0080919C009091F5
:1003F0009D00A5019401DED020931A0130931B01CA
:1004000040931C0150931D012AE030E047EE50E07C
:10041000C701B6010DD160911A0170911B01809145
:100420001C0190911D012AE030E043E251E000D12F
:100430008BE790E0C8DE87EE90E0C5DE80E890E0D4
:10044000C2DE83E291E0BFDE84E990E0FF90EF90AE
:10045000DF90CF90BF90AF909F908F90B4CE83E30A
:1004600090E0BCDE8FEF84BB15BA78948AE09ADE08
:100470008DE098DE94DFDCE6C2E713E705E079DE85
:1004800090FF04C0F8940ADF7894F9CF8C36910578
:1004900079F148F48336910509F44DC08936910508
:1004A00009F486C082C083379105F1F18437910544
:1004B00009F455C08237910509F077C080E990E0D2
:1004C000A3DE80919A0090919B00A0919C00B09136
:1004D0009D008C509E4FAF4FBF4F80939A009093DA
:1004E0009B00A0939C00B0939D00C093610019C035
:1004F00089E890E089DE80919A0090919B00A0911C
:100500009C00B0919D00845F9140A109B109809346
:100510009A0090939B00A0939C00B0939D00D09371
:100520006100C0936000ABCF82E890E06DDE109375
:10053000600015BAA4CF86E790E066DE10929E00B8
:1005400010929F001092A0001092A10010929A00A9
:1005500010929B0010929C0010929D0090CF8DE60F
:1005600090E052DEC093600004DE90FDFDCF089F56
:10057000B001099F700D112480E090E060939A0013
:1005800070939B0080939C0090939D002AE030E044
:1005900043E251E04DD089E890E015DE83E291E03E
:1005A00012DE84E990E00FDE6ACF86E290E02CDE76
:1005B000F6DE65CF052E97FB16F400940FD057FD9D
:1005C00005D014D007FC02D046F408C050954095E1
:1005D000309521953F4F4F4F5F4F089590958095EF
:1005E000709561957F4F8F4F9F4F0895A1E21A2E0E
:1005F000AA1BBB1BFD010DC0AA1FBB1FEE1FFF1FC7
:10060000A217B307E407F50720F0A21BB30BE40B16
:10061000F50B661F771F881F991F1A9469F760955D
:100620007095809590959B01AC01BD01CF01089517
:10063000FA01CF93FF93EF9322303CF125322CF552
:10064000C22FE894CA3049F497FB3EF49095809508
:10065000709561957F4F8F4F9F4F2C2F33274427E5
:100660005527FF93EF93C2DFEF91FF91605D6A33EF
:100670000CF0695D6193B901CA016050704080401F
:10068000904059F716F4CDE2C19310828F919F915B
:10069000CF9100C0DC01FC01672F71917723E1F756
:1006A000329704C07C916D9370836291AE17BF073F
:0806B000C8F30895F894FFCF90
:1006B8007372201008040500D0070000F401000040
:1006C800025541525420494E495400566F6C3A0025
:1006D800205461726765743A004E657720546172E0
:0806E8006765743A0A0D000079
:00000001FF
