:1000000012C021C020C01FC01EC01DC01CC01BC00C
:100010001AC019C018C017C016C015C014C013C02C
:1000200012C011C010C011241FBECFE5D4E0DEBF46
:10003000CDBF10E0A0E6B0E001C01D92A136B1072F
:10004000E1F77CD0B4C0DCCFDF93CF9300D000D0F9
:1000500000D0CDB7DEB76B837C838D839E838B818D
:100060009C81AD81BE81880F991FAA1FBB1F880F7D
:10007000991FAA1FBB1F880F991FAA1FBB1F880F9C
:10008000991FAA1FBB1F9C01AD0180E492E4AFE061
:10009000B0E0BC01CD0169D0DA01C90101979A83B2
:1000A000898380E490E029813A81232F3327FC0162
:1000B000208389E290E02981FC0120838AE290E09C
:1000C00028E1FC01208380E490E026E8FC01208305
:1000D00026960FB6F894DEBF0FBECDBFCF91DF914D
:1000E0000895DF93CF93CDB7DEB78BE290E0FC01AC
:1000F000808188232CF48CE290E0FC01808101C097
:1001000080E0CF91DF910895DF93CF930F92CDB729
:10011000DEB7898300008BE290E0FC018081882FAC
:1001200090E0807290700097B1F38CE290E02981AA
:10013000FC0120830F90CF91DF910895DF93CF933F
:10014000CDB7DEB760E679E080E090E07DDF01C00A
:100150000000C7DF80936000809160008823C1F3B6
:10016000809160008F5FD0DFF4CFA1E21A2EAA1B2E
:10017000BB1BFD010DC0AA1FBB1FEE1FFF1FA21757
:10018000B307E407F50720F0A21BB30BE40BF50B54
:10019000661F771F881F991F1A9469F760957095DD
:1001A000809590959B01AC01BD01CF010895F89415
:0201B000FFCF7F
:00000001FF
