:1000000012C019C018C017C016C015C014C013C044
:1000100012C011C010C00FC00EC00DC00CC00BC06C
:100020000AC009C008C011241FBECFE5D4E0DEBF5E
:10003000CDBF02D05BC0E4CFDF93CF93CDB7DEB7A7
:1000400087E390E027E330E0F90120812C60FC0198
:10005000208388E390E028E330E0F90120812460E8
:10006000FC01208388E390E028E330E0F90120815F
:100070002860FC01208386E390E0FC018081882FCA
:1000800090E081709070882351F088E390E028E33D
:1000900030E0F9012081277FFC01208309C088E33B
:1000A00090E028E330E0F90120812860FC01208302
:1000B00086E390E0FC018081882F90E08270907050
:1000C000009751F088E390E028E330E0F9012081C7
:1000D0002B7FFC012083CFCF88E390E028E330E042
:1000E000F90120812460FC012083C5CFF894FFCF63
:00000001FF
