:1000000023C032C031C030C02FC02EC02DC02CC084
:100010002BC02AC029C00AC127C026C025C024C0C1
:1000200023C0D5C121C02531690D0A002531690DD4
:100030000A00256C690D0A0053797374656D2052AE
:1000400065616479210D0A0011241FBECFE5D4E05B
:10005000DEBFCDBF10E0A0E6B0E001C01D92AE381B
:10006000B107E1F702D092C4CBCFAF92BF92CF924B
:10007000DF92EF92FF920F931F93DF93CF93CDB751
:10008000DEB72A970FB6F894DEBF0FBECDBF8E0144
:100090000F5F1F4F60E875E280E090E097D07894A2
:1000A00000D088E390E0ADB7BEB712969C938E93D4
:1000B0001197C6D00F900F9016D280E8898381EFF8
:1000C000F80181831282138284818C608F7E848305
:1000D000C80194D2C80110D222E3A22E20E0B22E91
:1000E0009CE2C92E90E0D92E86E2E82E80E0F82E20
:1000F00080E090E0ABD280E090E0A0E0B0E00000D3
:100100000196A11DB11D8034F2E49F07FFE0AF0707
:10011000F0E0BF07A1F780ED97E098D200D000D0C3
:10012000EDB7FEB73196ADB7BEB71296BC92AE92A0
:100130001197D80114968C918295817082831382D5
:100140007FD080E090E0A0E0B0E00F900F900F90A3
:100150000F9000000196A11DB11D8034E2E49E07BE
:10016000EFE0AE07E0E0BE07A1F700D000D0EDB7AA
:10017000FEB73196ADB7BEB71296DC92CE9211970C
:10018000D80114968C91829581708283138258D005
:100190000F900F900F900F90C801AED100D000D0FB
:1001A000EDB7FEB73196ADB7BEB71296FC92EE92A0
:1001B0001197D80114968C91829581708283138255
:1001C0003FD00F900F900F900F9092CF9B01AC01FA
:1001D00088E98AB984E0220F331F441F551F8A958E
:1001E000D1F760E072E18AE790E034D3C901DA0127
:1001F000215029B90197A109B10990BD08951F9314
:10020000182F8A3011F48DE0FADF5D9BFECF1CB908
:100210001F910895CF93DF93EC0102C02196EFDF89
:1002200088818823D9F7DF91CF9108951F920F928B
:100230000FB60F9211240F900FBE0F901F901895BC
:100240006F927F928F929F92AF92BF92CF92DF92E6
:10025000EF92FF920F931F93DF93CF93CDB7DEB74B
:1002600064970FB6F894DEBF0FBECDBF8E010B5D55
:100270001F4FF801E190F1908F01BB243E010894DB
:10028000611C711C5BE0852E912C8C0E9D1E40E341
:10029000A42E02C068018601F7018491882309F425
:1002A00081C00894E11CF11C853209F079C0F70186
:1002B0000894E11CF11C2491822F90E0C0970A97CA
:1002C00010F0822F0AC02B871C86C401E5D2B82EFD
:1002D000F7010894E11CF11C8491893671F08A368B
:1002E00028F4823661F08336A9F61CC0833749F0C2
:1002F000883719F18F3671F61EC04AE01FC042E000
:100300001DC032E0C32ED12CC00ED11EF8010081D9
:10031000118103C00F5F1F4F72DFF80180818823B6
:10032000C9F7B9CF22E0C22ED12CC00ED11EF801E0
:10033000808165DFB0CF48E001C040E192E0C92E86
:10034000D12CC00ED11EF80180819181B30150E003
:10035000D2D220E030E0A9014F5F5F4FF301E20FFE
:10036000F31F8081882311F09A01F5CF8B2D90E047
:10037000281739078CF4B21AF401C4018B0D911DB2
:1003800001C0A192E817F907E1F71082C401B30197
:10039000A0D2C301B401A8D2C3013CDFBB247BCFF0
:1003A0002EDF78CF64960FB6F894DEBF0FBECDBFB8
:1003B000CF91DF911F910F91FF90EF90DF90CF9041
:1003C000BF90AF909F908F907F906F9008951F92F5
:1003D0000F920FB60F9211248F939F93EF93FF9379
:1003E00081B1883019F081B1803149F48091620087
:1003F00083B985E886BF81E0809374006BC081B1CA
:10040000883119F081B1803261F490917400E92F44
:10041000F0E0EE59FF4F808183B99F5F90937400A5
:100420003DC081B1883219F081B1803399F4909147
:10043000740080917600981708F040C09091740085
:10044000E92FF0E0EE59FF4F808183B99F5F9093D1
:1004500074003EC081B18833B1F181B1803419F4A8
:100460001092750035C081B1883421F481E0809309
:10047000790024C081B1803599F480917500E82F0E
:10048000F0E093B1E559FF4F90838F5F8093750043
:1004900090917500809177009817D0F085E819C089
:1004A00081B1883581F480917500E82FF0E093B137
:1004B000E559FF4F90838F5F8093750085ED86BF70
:1004C0001092780007C081E0809379001092780044
:1004D00085EC86BFFF91EF919F918F910F900FBE9A
:1004E0000F901F90189580E480B985EC86BF10921C
:1004F00079001092780008959C01809178008823FB
:10050000E1F71092620081E88093630082E08093BB
:10051000760081E08093780085EA86BF809178003C
:100520008823E1F781E08093620098E09093770060
:100530008093780085EA86BF809178008823E1F770
:100540002115310569F0D90120E030E02F5F3F4FE0
:10055000F901E559FF4F80818D9325303105B1F7C1
:100560000895FC01DB01809178008823E1F7109267
:1005700062008CEF8093630082E08093760081E0DC
:100580008093780085EA86BF809178008823E1F720
:1005900081E08093620098E09093770080937800E8
:1005A00085EA86BF809178008823E1F7309759F07B
:1005B00040916E0020916F00942F80E030E0822BFC
:1005C000932B91838083109771F08091710020911B
:1005D000700090E086709070982F882730E0822B12
:1005E000932B8D939C9340916C0020916D00942FE0
:1005F00080E030E0282B392BC9010895482F8091E5
:1006000078008823E1F71092620089E88093630004
:100610008FEF8093640080936500242F392FC901E8
:10062000DC0124E030E08D91F901EE59FF4F808329
:100630002F5F3F4F29303105B1F789E08093760075
:1006400081E08093780085EA86BF08959C018091BF
:1006500078008823E1F7109262008BE880936300B2
:100660008FEF8093640080936500832F992787FD27
:100670009A95809366002093670086E080937600C9
:1006800081E08093780085EA86BF089580917800A4
:100690008823E1F71092620086E88093630082E08D
:1006A0008093760081E08093780085EA86BF089584
:1006B000809178008823E1F71092620084E88093AB
:1006C000630082E08093760081E08093780085EA81
:1006D00086BF0895809178008823E1F71092620028
:1006E00087E88093630082E08093760081E08093C6
:1006F000780085EA86BF0895DF93CF9300D000D0BD
:10070000CDB7DEB7982F5A8349833C832B838091E2
:1007100078008823E1F71092620088E880936300F4
:100720008FEF80936400809365006295607F9F7077
:10073000692B609366008A8180936700898180932A
:1007400068008C81809369008B8180936A0089E0C6
:100750008093760081E08093780085EA86BF0F90D1
:100760000F900F900F90CF91DF91089580917800B6
:100770008823E1F71092620085E88093630082E0AD
:100780008093760081E08093780085EA86BF0895A3
:10079000809178008823E1F7109262008FE88093BF
:1007A000630082E08093760081E08093780085EAA0
:1007B00086BF0895EF92FF920F931F93DF93CF931D
:1007C000CDB7DEB727970FB6F894DEBF0FBECDBF0B
:1007D0007C01CE01039690DE8B81F70180838C81B2
:1007E00081832D81522F5F708281807E422F441F32
:1007F0004427441F4295407F9481937E322F30716D
:10080000852B832B82832695269526952C70942BF9
:10081000922B948380E090E08E010F5F1F4FB80110
:10082000A0DEF80191819295990F907EF701828167
:100830008F71892B82838981838327960FB6F894E1
:10084000DEBF0FBECDBFCF91DF911F910F91FF9003
:10085000EF900895A1E21A2EAA1BBB1BFD010DC04B
:10086000AA1FBB1FEE1FFF1FA217B307E407F50760
:1008700020F0A21BB30BE40BF50B661F771F881F3C
:10088000991F1A9469F760957095809590959B01D2
:10089000AC01BD01CF010895FC0188279927E89498
:1008A00021912032E9F3293010F02E30C8F32B3299
:1008B00039F02D3231F4689403C03CD0820F911D81
:1008C000219120532A30C8F31EF4909581959F4FB3
:1008D0000895FB01DC010D900020E9F711970190CC
:1008E0000D920020E1F70895FB01DC0101900D92CB
:1008F0000020E1F70895FB019F01E8944230BCF02D
:100900004532ACF44A3029F497FB1EF4909581955A
:100910009F4F642F772726D0805D8A330CF0895D46
:100920008193CB010097A9F716F45DE251931082F1
:10093000C90108C07AE0979F902D879F802D910D67
:1009400011240895DC01FC01672F71917723E1F7F1
:10095000329704C07C916D9370836291AE17BF078C
:10096000C8F30895AA1BBB1B51E107C0AA1FBB1FF8
:10097000A617B70710F0A61BB70B881F991F5A952B
:10098000A9F780959095BC01CD010895F894FFCF0B
:00000001FF
